{
  "_format": "hh-sol-artifact-1",
  "contractName": "PairFlash",
  "sourceName": "contracts/Arbitrage.sol",
  "abi": [
    {
      "inputs": [
        {
          "internalType": "contract ISwapRouter",
          "name": "_swapRouter",
          "type": "address"
        },
        {
          "internalType": "address",
          "name": "_factory",
          "type": "address"
        },
        {
          "internalType": "address",
          "name": "_WETH9",
          "type": "address"
        }
      ],
      "stateMutability": "nonpayable",
      "type": "constructor"
    },
    {
      "inputs": [],
      "name": "WETH9",
      "outputs": [
        {
          "internalType": "address",
          "name": "",
          "type": "address"
        }
      ],
      "stateMutability": "view",
      "type": "function"
    },
    {
      "inputs": [],
      "name": "factory",
      "outputs": [
        {
          "internalType": "address",
          "name": "",
          "type": "address"
        }
      ],
      "stateMutability": "view",
      "type": "function"
    },
    {
      "inputs": [
        {
          "components": [
            {
              "internalType": "address",
              "name": "token0",
              "type": "address"
            },
            {
              "internalType": "address",
              "name": "token1",
              "type": "address"
            },
            {
              "internalType": "uint24",
              "name": "fee1",
              "type": "uint24"
            },
            {
              "internalType": "uint256",
              "name": "amount0",
              "type": "uint256"
            },
            {
              "internalType": "uint256",
              "name": "amount1",
              "type": "uint256"
            },
            {
              "internalType": "uint24",
              "name": "fee2",
              "type": "uint24"
            },
            {
              "internalType": "uint24",
              "name": "fee3",
              "type": "uint24"
            }
          ],
          "internalType": "struct PairFlash.FlashParams",
          "name": "params",
          "type": "tuple"
        }
      ],
      "name": "initFlash",
      "outputs": [],
      "stateMutability": "nonpayable",
      "type": "function"
    },
    {
      "inputs": [],
      "name": "swapRouter",
      "outputs": [
        {
          "internalType": "contract ISwapRouter",
          "name": "",
          "type": "address"
        }
      ],
      "stateMutability": "view",
      "type": "function"
    },
    {
      "inputs": [
        {
          "internalType": "address",
          "name": "token",
          "type": "address"
        },
        {
          "internalType": "uint256",
          "name": "amountMinimum",
          "type": "uint256"
        },
        {
          "internalType": "address",
          "name": "recipient",
          "type": "address"
        }
      ],
      "name": "sweepToken",
      "outputs": [],
      "stateMutability": "payable",
      "type": "function"
    },
    {
      "inputs": [
        {
          "internalType": "uint256",
          "name": "fee0",
          "type": "uint256"
        },
        {
          "internalType": "uint256",
          "name": "fee1",
          "type": "uint256"
        },
        {
          "internalType": "bytes",
          "name": "data",
          "type": "bytes"
        }
      ],
      "name": "uniswapV3FlashCallback",
      "outputs": [],
      "stateMutability": "nonpayable",
      "type": "function"
    },
    {
      "inputs": [
        {
          "internalType": "uint256",
          "name": "amountMinimum",
          "type": "uint256"
        },
        {
          "internalType": "address",
          "name": "recipient",
          "type": "address"
        }
      ],
      "name": "unwrapWETH9",
      "outputs": [],
      "stateMutability": "payable",
      "type": "function"
    },
    {
      "stateMutability": "payable",
      "type": "receive"
    }
  ],
  "bytecode": "0x60e06040523480156200001c5760008062000019620000f4565b50505b5060405162002b9c38038062002b9c833981810160405281019062000042919062000192565b81818173ffffffffffffffffffffffffffffffffffffffff1660808173ffffffffffffffffffffffffffffffffffffffff1660601b815250508073ffffffffffffffffffffffffffffffffffffffff1660a08173ffffffffffffffffffffffffffffffffffffffff1660601b8152505050508273ffffffffffffffffffffffffffffffffffffffff1660c08173ffffffffffffffffffffffffffffffffffffffff1660601b8152505050505062000285565b632a2a7adb598160e01b8152600481016020815285602082015260005b868110156200013157808601518160408401015260208101905062000111565b506020828760640184336000905af158600e01573d6000803e3d6000fd5b3d6001141558600a015760016000f35b505050565b60008151905062000175816200023b565b92915050565b6000815190506200018c8162000260565b92915050565b600080600060608486031215620001b357600080620001b0620000f4565b50505b6000620001c3868287016200017b565b9350506020620001d68682870162000164565b9250506040620001e98682870162000164565b9150509250925092565b600062000200826200021b565b9050919050565b60006200021482620001f3565b9050919050565b600073ffffffffffffffffffffffffffffffffffffffff82169050919050565b6200024681620001f3565b81146200025d576000806200025a620000f4565b50505b50565b6200026b8162000207565b811462000282576000806200027f620000f4565b50505b50565b60805160601c60a05160601c60c05160601c6128b5620002e76000398061075d52806109ce52806109fd5280610a4e5280610c28525080607b52806104a3528061067852806107395250806102f65280610781528061098452506128b56000f3fe6080604052600436106100745760003560e01c8063c31c9c071161004e578063c31c9c07146101dd578063c45a015514610211578063df2ab5bb14610245578063e9cbafb0146102615761014d565b80632384463b1461015b57806349404b7c1461018d5780634aa4a4fc146101a95761014d565b3661014d577f000000000000000000000000000000000000000000000000000000000000000073ffffffffffffffffffffffffffffffffffffffff165a6100b9611c94565b73ffffffffffffffffffffffffffffffffffffffff161461014b576040517f08c379a00000000000000000000000000000000000000000000000000000000081526004018080602001828103825260098152602001807f4e6f74205745544839000000000000000000000000000000000000000000000081525060200191505060405180910390610148611cf1565b50505b005b600080610158611cf1565b50505b3480156101705760008061016d611cf1565b50505b5061018b6004803603810190610186919061232b565b610293565b005b6101a760048036038101906101a2919061238f565b61049f565b005b3480156101be576000806101bb611cf1565b50505b506101c7610737565b6040516101d49190612663565b60405180910390f35b3480156101f2576000806101ef611cf1565b50505b506101fb61075b565b60405161020891906126ca565b60405180910390f35b34801561022657600080610223611cf1565b50505b5061022f61077f565b60405161023c9190612663565b60405180910390f35b61025f600480360381019061025a91906122a0565b6107a3565b005b34801561027657600080610273611cf1565b50505b50610291600480360381019061028c91906123d4565b61096c565b005b60006040518060600160405280836000015173ffffffffffffffffffffffffffffffffffffffff168152602001836020015173ffffffffffffffffffffffffffffffffffffffff168152602001836040015162ffffff168152509050600061031b7f0000000000000000000000000000000000000000000000000000000000000000836111c1565b90508073ffffffffffffffffffffffffffffffffffffffff1663490e6cbc5a63996d79a5598160e01b8152602081600483336000905af158600e01573d6000803e3d6000fd5b3d6001141558600a015760016000f35b8051925060005b604081101561039257600081830152602081019050610378565b505050856060015186608001516040518060c0016040528089606001518152602001896080015181526020015a6103c7611c94565b73ffffffffffffffffffffffffffffffffffffffff1681526020018881526020018960a0015162ffffff1681526020018960c0015162ffffff168152506040516020016104149190612701565b6040516020818303038152906040526040518563ffffffff1660e01b8152600401610442949392919061267e565b60006040518083038160008780610457611d5f565b15801561046c57600080610469611cf1565b50505b505a610476611dc2565b505050505050158015610496573d6000803e3d6000610493611cf1565b50505b50505050505050565b60007f000000000000000000000000000000000000000000000000000000000000000073ffffffffffffffffffffffffffffffffffffffff166370a082315a63996d79a5598160e01b8152602081600483336000905af158600e01573d6000803e3d6000fd5b3d6001141558600a015760016000f35b8051925060005b60408110156105365760008183015260208101905061051c565b5050506040518263ffffffff1660e01b8152600401808273ffffffffffffffffffffffffffffffffffffffff168152602001915050602060405180830381868061057e611d5f565b15801561059357600080610590611cf1565b50505b505a61059d611ec2565b50505050501580156105bc573d6000803e3d60006105b9611cf1565b50505b505050506040513d60208110156105db576000806105d8611cf1565b50505b810190808051906020019092919050505090508281101561066d576040517f08c379a00000000000000000000000000000000000000000000000000000000081526004018080602001828103825260128152602001807f496e73756666696369656e7420574554483900000000000000000000000000008152506020019150506040518091039061066a611cf1565b50505b6000811115610732577f000000000000000000000000000000000000000000000000000000000000000073ffffffffffffffffffffffffffffffffffffffff16632e1a7d4d826040518263ffffffff1660e01b815260040180828152602001915050600060405180830381600087806106e4611d5f565b1580156106f9576000806106f6611cf1565b50505b505a610703611dc2565b505050505050158015610723573d6000803e3d6000610720611cf1565b50505b505050506107318282611325565b5b505050565b7f000000000000000000000000000000000000000000000000000000000000000081565b7f000000000000000000000000000000000000000000000000000000000000000081565b7f000000000000000000000000000000000000000000000000000000000000000081565b60008373ffffffffffffffffffffffffffffffffffffffff166370a082315a63996d79a5598160e01b8152602081600483336000905af158600e01573d6000803e3d6000fd5b3d6001141558600a015760016000f35b8051925060005b604081101561081a57600081830152602081019050610800565b5050506040518263ffffffff1660e01b8152600401808273ffffffffffffffffffffffffffffffffffffffff1681526020019150506020604051808303818680610862611d5f565b15801561087757600080610874611cf1565b50505b505a610881611ec2565b50505050501580156108a0573d6000803e3d600061089d611cf1565b50505b505050506040513d60208110156108bf576000806108bc611cf1565b50505b8101908080519060200190929190505050905082811015610951576040517f08c379a00000000000000000000000000000000000000000000000000000000081526004018080602001828103825260128152602001807f496e73756666696369656e7420746f6b656e00000000000000000000000000008152506020019150506040518091039061094e611cf1565b50505b6000811115610966576109658483836114c0565b5b50505050565b6000828281019061097d91906122f8565b90506109ad7f000000000000000000000000000000000000000000000000000000000000000082606001516116e0565b5060008160600151600001519050600082606001516020015190506109f7827f0000000000000000000000000000000000000000000000000000000000000000856000015161173d565b610a26817f0000000000000000000000000000000000000000000000000000000000000000856020015161173d565b6000610a3684602001518861195d565b90506000610a4885600001518a61195d565b905060007f000000000000000000000000000000000000000000000000000000000000000073ffffffffffffffffffffffffffffffffffffffff1663414bf3896040518061010001604052808773ffffffffffffffffffffffffffffffffffffffff1681526020018873ffffffffffffffffffffffffffffffffffffffff168152602001896080015162ffffff1681526020015a63996d79a5598160e01b8152602081600483336000905af158600e01573d6000803e3d6000fd5b3d6001141558600a015760016000f35b8051925060005b6040811015610b3457600081830152602081019050610b1a565b50505073ffffffffffffffffffffffffffffffffffffffff16815260200160c85a610b5d611fc2565b01815260200189602001518152602001858152602001600073ffffffffffffffffffffffffffffffffffffffff168152506040518263ffffffff1660e01b8152600401610baa91906126e5565b60206040518083038160008780610bbf611d5f565b158015610bd457600080610bd1611cf1565b50505b505a610bde611dc2565b505050505050158015610bfe573d6000803e3d6000610bfb611cf1565b50505b505050506040513d601f19601f82011682018060405250810190610c22919061235d565b905060007f000000000000000000000000000000000000000000000000000000000000000073ffffffffffffffffffffffffffffffffffffffff1663414bf3896040518061010001604052808973ffffffffffffffffffffffffffffffffffffffff1681526020018873ffffffffffffffffffffffffffffffffffffffff1681526020018a60a0015162ffffff1681526020015a63996d79a5598160e01b8152602081600483336000905af158600e01573d6000803e3d6000fd5b3d6001141558600a015760016000f35b8051925060005b6040811015610d0e57600081830152602081019050610cf4565b50505073ffffffffffffffffffffffffffffffffffffffff16815260200160c85a610d37611fc2565b0181526020018a600001518152602001878152602001600073ffffffffffffffffffffffffffffffffffffffff168152506040518263ffffffff1660e01b8152600401610d8491906126e5565b60206040518083038160008780610d99611d5f565b158015610dae57600080610dab611cf1565b50505b505a610db8611dc2565b505050505050158015610dd8573d6000803e3d6000610dd5611cf1565b50505b505050506040513d601f19601f82011682018060405250810190610dfc919061235d565b90506000610e0e88600001518d61195d565b90506000610e2089602001518d61195d565b9050610e88885a63996d79a5598160e01b8152602081600483336000905af158600e01573d6000803e3d6000fd5b3d6001141558600a015760016000f35b8051925060005b6040811015610e7f57600081830152602081019050610e65565b5050508461173d565b610eee875a63996d79a5598160e01b8152602081600483336000905af158600e01573d6000803e3d6000fd5b3d6001141558600a015760016000f35b8051925060005b6040811015610ee557600081830152602081019050610ecb565b5050508361173d565b6000821115610f6757610f66885a63996d79a5598160e01b8152602081600483336000905af158600e01573d6000803e3d6000fd5b3d6001141558600a015760016000f35b8051925060005b6040811015610f5457600081830152602081019050610f3a565b5050505a610f60611c94565b85611980565b5b6000811115610fe057610fdf875a63996d79a5598160e01b8152602081600483336000905af158600e01573d6000803e3d6000fd5b3d6001141558600a015760016000f35b8051925060005b6040811015610fcd57600081830152602081019050610fb3565b5050505a610fd9611c94565b84611980565b5b818411156110c9576000610ff48584611a32565b905061105c895a63996d79a5598160e01b8152602081600483336000905af158600e01573d6000803e3d6000fd5b3d6001141558600a015760016000f35b8051925060005b604081101561105357600081830152602081019050611039565b5050508361173d565b6110c7895a63996d79a5598160e01b8152602081600483336000905af158600e01573d6000803e3d6000fd5b3d6001141558600a015760016000f35b8051925060005b60408110156110b95760008183015260208101905061109f565b5050508c6040015184611980565b505b808311156111b25760006110dd8483611a32565b9050611145895a63996d79a5598160e01b8152602081600483336000905af158600e01573d6000803e3d6000fd5b3d6001141558600a015760016000f35b8051925060005b604081101561113c57600081830152602081019050611122565b5050508361173d565b6111b0885a63996d79a5598160e01b8152602081600483336000905af158600e01573d6000803e3d6000fd5b3d6001141558600a015760016000f35b8051925060005b60408110156111a257600081830152602081019050611188565b5050508c6040015184611980565b505b50505050505050505050505050565b6000816020015173ffffffffffffffffffffffffffffffffffffffff16826000015173ffffffffffffffffffffffffffffffffffffffff161061120c57600080611209611cf1565b50505b82826000015183602001518460400151604051602001808473ffffffffffffffffffffffffffffffffffffffff1681526020018373ffffffffffffffffffffffffffffffffffffffff1681526020018262ffffff1681526020019350505050604051602081830303815290604052805190602001207fe34f199b19b2b4f47f68442619d555527d244f78a3297ea89325f843f87b8b5460001b60405160200180807fff000000000000000000000000000000000000000000000000000000000000008152506001018473ffffffffffffffffffffffffffffffffffffffff1660601b815260140183815260200182815260200193505050506040516020818303038152906040528051906020012060001c905092915050565b60008273ffffffffffffffffffffffffffffffffffffffff1682600067ffffffffffffffff811180156113605760008061135d611cf1565b50505b506040519080825280601f01601f1916602001820160405280156113935781602001600182028036833780820191505090505b506040518082805190602001908083835b602083106113c757805182526020820191506020810190506020830392506113a4565b6001836020036101000a03801982511681845116808217855250505050505090500191505060006040518083038185875a611400611dc2565b505050505050925050503d8060008114611436576040519150601f19603f3d011682016040523d82523d6000602084013e61143b565b606091505b50509050806114bb576040517f08c379a00000000000000000000000000000000000000000000000000000000081526004018080602001828103825260038152602001807f5354450000000000000000000000000000000000000000000000000000000000815250602001915050604051809103906114b8611cf1565b50505b505050565b6000808473ffffffffffffffffffffffffffffffffffffffff1663a9059cbb60e01b8585604051602401808373ffffffffffffffffffffffffffffffffffffffff16815260200182815260200192505050604051602081830303815290604052907bffffffffffffffffffffffffffffffffffffffffffffffffffffffff19166020820180517bffffffffffffffffffffffffffffffffffffffffffffffffffffffff83818316178352505050506040518082805190602001908083835b602083106115a1578051825260208201915060208101905060208303925061157e565b6001836020036101000a0380198251168184511680821785525050505050509050019150506000604051808303816000865a6115db611dc2565b5050505050509150503d8060008114611610576040519150601f19603f3d011682016040523d82523d6000602084013e611615565b606091505b509150915081801561165e575060008151148061165d575080806020019051602081101561164b57600080611648611cf1565b50505b81019080805190602001909291905050505b5b6116d9576040517f08c379a00000000000000000000000000000000000000000000000000000000081526004018080602001828103825260028152602001807f5354000000000000000000000000000000000000000000000000000000000000815250602001915050604051809103906116d6611cf1565b50505b5050505050565b60006116ec83836111c1565b90508073ffffffffffffffffffffffffffffffffffffffff165a61170e611c94565b73ffffffffffffffffffffffffffffffffffffffff161461173757600080611734611cf1565b50505b92915050565b6000808473ffffffffffffffffffffffffffffffffffffffff1663095ea7b360e01b8585604051602401808373ffffffffffffffffffffffffffffffffffffffff16815260200182815260200192505050604051602081830303815290604052907bffffffffffffffffffffffffffffffffffffffffffffffffffffffff19166020820180517bffffffffffffffffffffffffffffffffffffffffffffffffffffffff83818316178352505050506040518082805190602001908083835b6020831061181e57805182526020820191506020810190506020830392506117fb565b6001836020036101000a0380198251168184511680821785525050505050509050019150506000604051808303816000865a611858611dc2565b5050505050509150503d806000811461188d576040519150601f19603f3d011682016040523d82523d6000602084013e611892565b606091505b50915091508180156118db57506000815114806118da57508080602001905160208110156118c8576000806118c5611cf1565b50505b81019080805190602001909291905050505b5b611956576040517f08c379a00000000000000000000000000000000000000000000000000000000081526004018080602001828103825260028152602001807f534100000000000000000000000000000000000000000000000000000000000081525060200191505060405180910390611953611cf1565b50505b5050505050565b600082828401915081101561197a57600080611977611cf1565b50505b92915050565b5a63996d79a5598160e01b8152602081600483336000905af158600e01573d6000803e3d6000fd5b3d6001141558600a015760016000f35b8051925060005b60408110156119d9576000818301526020810190506119bf565b50505073ffffffffffffffffffffffffffffffffffffffff168373ffffffffffffffffffffffffffffffffffffffff161415611a1f57611a1a8483836114c0565b611a2c565b611a2b84848484611a55565b5b50505050565b6000828284039150811115611a4f57600080611a4c611cf1565b50505b92915050565b6000808573ffffffffffffffffffffffffffffffffffffffff166323b872dd60e01b868686604051602401808473ffffffffffffffffffffffffffffffffffffffff1681526020018373ffffffffffffffffffffffffffffffffffffffff1681526020018281526020019350505050604051602081830303815290604052907bffffffffffffffffffffffffffffffffffffffffffffffffffffffff19166020820180517bffffffffffffffffffffffffffffffffffffffffffffffffffffffff83818316178352505050506040518082805190602001908083835b60208310611b545780518252602082019150602081019050602083039250611b31565b6001836020036101000a0380198251168184511680821785525050505050509050019150506000604051808303816000865a611b8e611dc2565b5050505050509150503d8060008114611bc3576040519150601f19603f3d011682016040523d82523d6000602084013e611bc8565b606091505b5091509150818015611c115750600081511480611c105750808060200190516020811015611bfe57600080611bfb611cf1565b50505b81019080805190602001909291905050505b5b611c8c576040517f08c379a00000000000000000000000000000000000000000000000000000000081526004018080602001828103825260038152602001807f535446000000000000000000000000000000000000000000000000000000000081525060200191505060405180910390611c89611cf1565b50505b505050505050565b6373509064598160e01b8152602081600483336000905af158600e01573d6000803e3d6000fd5b3d6001141558600a015760016000f35b8051935060005b6040811015611cec57600081830152602081019050611cd2565b505050565b632a2a7adb598160e01b8152600481016020815285602082015260005b86811015611d2c578086015181604084010152602081019050611d0e565b506020828760640184336000905af158600e01573d6000803e3d6000fd5b3d6001141558600a015760016000f35b505050565b638435035b598160e01b8152836004820152602081602483336000905af158600e01573d6000803e3d6000fd5b3d6001141558600a015760016000f35b8051935060005b6040811015611dbd57600081830152602081019050611da3565b505050565b6385979f76598160e01b8152611e01565b600081905081831115611de4578290505b92915050565b600081905081831015611dfb578290505b92915050565b836004820152846024820152606060448201528760648201526084810160005b89811015611e3c578089015181830152602081019050611e21565b506060828a60a40184336000905af158600e01573d6000803e3d6000fd5b3d6001141558600a015760016000f35b815160408301513d6000853e8c8c82606087013350600060045af15059611e918e3d611dea565b8d01611e9d8187611dd3565b5b82811015611eb55760008152602081019050611e9e565b50839e5050505050505050565b638540661f598160e01b8152611f01565b600081905081831115611ee4578290505b92915050565b600081905081831015611efb578290505b92915050565b836004820152846024820152606060448201528660648201526084810160005b88811015611f3c578088015181830152602081019050611f21565b506060828960a40184336000905af158600e01573d6000803e3d6000fd5b3d6001141558600a015760016000f35b815160408301513d6000853e8b8b82606087013350600060045af15059611f918d3d611eea565b8c01611f9d8187611ed3565b5b82811015611fb55760008152602081019050611f9e565b50839d5050505050505050565b63bdbf8c36598160e01b8152602081600483336000905af158600e01573d6000803e3d6000fd5b3d6001141558600a015760016000f35b8051935060005b604081101561201a57600081830152602081019050612000565b505050565b60008135905061202e81612855565b92915050565b60008083601f84011261204f5760008061204c611cf1565b50505b8235905067ffffffffffffffff8111156120715760008061206e611cf1565b50505b6020830191508360018202830111156120925760008061208f611cf1565b50505b9250929050565b600061010082840312156120b5576000806120b2611cf1565b50505b6120bf60c061271d565b905060006120cf84828501612276565b60008301525060206120e384828501612276565b60208301525060406120f78482850161201f565b604083015250606061210b848285016121f8565b60608301525060c061211f84828501612261565b60808301525060e061213384828501612261565b60a08301525092915050565b600060e0828403121561215a57600080612157611cf1565b50505b61216460e061271d565b905060006121748482850161201f565b60008301525060206121888482850161201f565b602083015250604061219c84828501612261565b60408301525060606121b084828501612276565b60608301525060806121c484828501612276565b60808301525060a06121d884828501612261565b60a08301525060c06121ec84828501612261565b60c08301525092915050565b60006060828403121561221357600080612210611cf1565b50505b61221d606061271d565b9050600061222d8482850161201f565b60008301525060206122418482850161201f565b602083015250604061225584828501612261565b60408301525092915050565b60008135905061227081612875565b92915050565b60008135905061228581612895565b92915050565b60008151905061229a81612895565b92915050565b6000806000606084860312156122be576000806122bb611cf1565b50505b60006122cc8682870161201f565b93505060206122dd86828701612276565b92505060406122ee8682870161201f565b9150509250925092565b6000610100828403121561231457600080612311611cf1565b50505b600061232284828501612099565b91505092915050565b600060e0828403121561234657600080612343611cf1565b50505b60006123548482850161213f565b91505092915050565b60006020828403121561237857600080612375611cf1565b50505b60006123868482850161228b565b91505092915050565b600080604083850312156123ab576000806123a8611cf1565b50505b60006123b985828601612276565b92505060206123ca8582860161201f565b9150509250929050565b600080600080606085870312156123f3576000806123f0611cf1565b50505b600061240187828801612276565b945050602061241287828801612276565b935050604085013567ffffffffffffffff81111561243857600080612435611cf1565b50505b61244487828801612034565b925092505092959194509250565b61245b816127b5565b82525050565b61246a8161276a565b82525050565b6124798161276a565b82525050565b600061248a8261274e565b6124948185612759565b93506124a481856020860161280f565b6124ad81612844565b840191505092915050565b6124c1816127c7565b82525050565b610100820160008201516124de6000850182612461565b5060208201516124f16020850182612461565b5060408201516125046040850182612636565b5060608201516125176060850182612461565b50608082015161252a6080850182612645565b5060a082015161253d60a0850182612645565b5060c082015161255060c0850182612645565b5060e082015161256360e0850182612627565b50505050565b610100820160008201516125806000850182612645565b5060208201516125936020850182612645565b5060408201516125a66040850182612461565b5060608201516125b960608501826125e5565b5060808201516125cc60c0850182612636565b5060a08201516125df60e0850182612636565b50505050565b6060820160008201516125fb6000850182612461565b50602082015161260e6020850182612461565b5060408201516126216040850182612636565b50505050565b6126308161277c565b82525050565b61263f8161279c565b82525050565b61264e816127ab565b82525050565b61265d816127ab565b82525050565b60006020820190506126786000830184612470565b92915050565b60006080820190506126936000830187612452565b6126a06020830186612654565b6126ad6040830185612654565b81810360608301526126bf818461247f565b905095945050505050565b60006020820190506126df60008301846124b8565b92915050565b6000610100820190506126fb60008301846124c7565b92915050565b6000610100820190506127176000830184612569565b92915050565b6000604051905081810181811067ffffffffffffffff8211171561274457612743612842565b5b8060405250919050565b600081519050919050565b600082825260208201905092915050565b60006127758261277c565b9050919050565b600073ffffffffffffffffffffffffffffffffffffffff82169050919050565b600062ffffff82169050919050565b6000819050919050565b60006127c0826127eb565b9050919050565b60006127d2826127d9565b9050919050565b60006127e48261277c565b9050919050565b60006127f6826127fd565b9050919050565b60006128088261277c565b9050919050565b60005b8381101561282d578082015181840152602081019050612812565b8381111561283c576000848401525b50505050565bfe5b6000601f19601f8301169050919050565b61285e8161276a565b81146128725760008061286f611cf1565b50505b50565b61287e8161279c565b81146128925760008061288f611cf1565b50505b50565b61289e816127ab565b81146128b2576000806128af611cf1565b50505b5056",
  "linkReferences": {},
  "deployedLinkReferences": {}
}